{
  "_format": "hh-sol-artifact-1",
  "contractName": "MyEpicNFT",
  "sourceName": "contracts/MyEpicNFT.sol",
  "abi": [
    {
      "inputs": [],
      "stateMutability": "nonpayable",
      "type": "constructor"
    },
    {
      "anonymous": false,
      "inputs": [
        {
          "indexed": true,
          "internalType": "address",
          "name": "owner",
          "type": "address"
        },
        {
          "indexed": true,
          "internalType": "address",
          "name": "approved",
          "type": "address"
        },
        {
          "indexed": true,
          "internalType": "uint256",
          "name": "tokenId",
          "type": "uint256"
        }
      ],
      "name": "Approval",
      "type": "event"
    },
    {
      "anonymous": false,
      "inputs": [
        {
          "indexed": true,
          "internalType": "address",
          "name": "owner",
          "type": "address"
        },
        {
          "indexed": true,
          "internalType": "address",
          "name": "operator",
          "type": "address"
        },
        {
          "indexed": false,
          "internalType": "bool",
          "name": "approved",
          "type": "bool"
        }
      ],
      "name": "ApprovalForAll",
      "type": "event"
    },
    {
      "anonymous": false,
      "inputs": [
        {
          "indexed": false,
          "internalType": "address",
          "name": "sender",
          "type": "address"
        },
        {
          "indexed": false,
          "internalType": "uint256",
          "name": "tokenId",
          "type": "uint256"
        }
      ],
      "name": "NewEpicNFTMinted",
      "type": "event"
    },
    {
      "anonymous": false,
      "inputs": [
        {
          "indexed": true,
          "internalType": "address",
          "name": "from",
          "type": "address"
        },
        {
          "indexed": true,
          "internalType": "address",
          "name": "to",
          "type": "address"
        },
        {
          "indexed": true,
          "internalType": "uint256",
          "name": "tokenId",
          "type": "uint256"
        }
      ],
      "name": "Transfer",
      "type": "event"
    },
    {
      "inputs": [
        {
          "internalType": "address",
          "name": "to",
          "type": "address"
        },
        {
          "internalType": "uint256",
          "name": "tokenId",
          "type": "uint256"
        }
      ],
      "name": "approve",
      "outputs": [],
      "stateMutability": "nonpayable",
      "type": "function"
    },
    {
      "inputs": [
        {
          "internalType": "address",
          "name": "owner",
          "type": "address"
        }
      ],
      "name": "balanceOf",
      "outputs": [
        {
          "internalType": "uint256",
          "name": "",
          "type": "uint256"
        }
      ],
      "stateMutability": "view",
      "type": "function"
    },
    {
      "inputs": [
        {
          "internalType": "uint256",
          "name": "tokenId",
          "type": "uint256"
        }
      ],
      "name": "getApproved",
      "outputs": [
        {
          "internalType": "address",
          "name": "",
          "type": "address"
        }
      ],
      "stateMutability": "view",
      "type": "function"
    },
    {
      "inputs": [
        {
          "internalType": "address",
          "name": "owner",
          "type": "address"
        },
        {
          "internalType": "address",
          "name": "operator",
          "type": "address"
        }
      ],
      "name": "isApprovedForAll",
      "outputs": [
        {
          "internalType": "bool",
          "name": "",
          "type": "bool"
        }
      ],
      "stateMutability": "view",
      "type": "function"
    },
    {
      "inputs": [],
      "name": "makeAnEpicNFT",
      "outputs": [],
      "stateMutability": "nonpayable",
      "type": "function"
    },
    {
      "inputs": [],
      "name": "name",
      "outputs": [
        {
          "internalType": "string",
          "name": "",
          "type": "string"
        }
      ],
      "stateMutability": "view",
      "type": "function"
    },
    {
      "inputs": [
        {
          "internalType": "uint256",
          "name": "tokenId",
          "type": "uint256"
        }
      ],
      "name": "ownerOf",
      "outputs": [
        {
          "internalType": "address",
          "name": "",
          "type": "address"
        }
      ],
      "stateMutability": "view",
      "type": "function"
    },
    {
      "inputs": [
        {
          "internalType": "uint256",
          "name": "tokenId",
          "type": "uint256"
        },
        {
          "internalType": "string[]",
          "name": "arr",
          "type": "string[]"
        }
      ],
      "name": "pickRandom",
      "outputs": [
        {
          "internalType": "string",
          "name": "",
          "type": "string"
        }
      ],
      "stateMutability": "view",
      "type": "function"
    },
    {
      "inputs": [
        {
          "internalType": "address",
          "name": "from",
          "type": "address"
        },
        {
          "internalType": "address",
          "name": "to",
          "type": "address"
        },
        {
          "internalType": "uint256",
          "name": "tokenId",
          "type": "uint256"
        }
      ],
      "name": "safeTransferFrom",
      "outputs": [],
      "stateMutability": "nonpayable",
      "type": "function"
    },
    {
      "inputs": [
        {
          "internalType": "address",
          "name": "from",
          "type": "address"
        },
        {
          "internalType": "address",
          "name": "to",
          "type": "address"
        },
        {
          "internalType": "uint256",
          "name": "tokenId",
          "type": "uint256"
        },
        {
          "internalType": "bytes",
          "name": "_data",
          "type": "bytes"
        }
      ],
      "name": "safeTransferFrom",
      "outputs": [],
      "stateMutability": "nonpayable",
      "type": "function"
    },
    {
      "inputs": [
        {
          "internalType": "address",
          "name": "operator",
          "type": "address"
        },
        {
          "internalType": "bool",
          "name": "approved",
          "type": "bool"
        }
      ],
      "name": "setApprovalForAll",
      "outputs": [],
      "stateMutability": "nonpayable",
      "type": "function"
    },
    {
      "inputs": [
        {
          "internalType": "bytes4",
          "name": "interfaceId",
          "type": "bytes4"
        }
      ],
      "name": "supportsInterface",
      "outputs": [
        {
          "internalType": "bool",
          "name": "",
          "type": "bool"
        }
      ],
      "stateMutability": "view",
      "type": "function"
    },
    {
      "inputs": [],
      "name": "symbol",
      "outputs": [
        {
          "internalType": "string",
          "name": "",
          "type": "string"
        }
      ],
      "stateMutability": "view",
      "type": "function"
    },
    {
      "inputs": [
        {
          "internalType": "uint256",
          "name": "tokenId",
          "type": "uint256"
        }
      ],
      "name": "tokenURI",
      "outputs": [
        {
          "internalType": "string",
          "name": "",
          "type": "string"
        }
      ],
      "stateMutability": "view",
      "type": "function"
    },
    {
      "inputs": [
        {
          "internalType": "address",
          "name": "from",
          "type": "address"
        },
        {
          "internalType": "address",
          "name": "to",
          "type": "address"
        },
        {
          "internalType": "uint256",
          "name": "tokenId",
          "type": "uint256"
        }
      ],
      "name": "transferFrom",
      "outputs": [],
      "stateMutability": "nonpayable",
      "type": "function"
    }
  ],
  "bytecode": "0x60806040526040518060a00160405280606d815260200162005a50606d9139600890805190602001906200003592919062001aa7565b5060405180610e600160405280610e29815260200162005abd610e299139600990805190602001906200006a92919062001aa7565b50604051806105e001604052806105b78152602001620068e66105b79139600a90805190602001906200009f92919062001aa7565b50604051806102c0016040528061029881526020016200744e6102989139600b9080519060200190620000d492919062001aa7565b50604051806105e001604052806105b1815260200162006e9d6105b19139600c90805190602001906200010992919062001aa7565b5060405180610160016040528061012a8152602001620076e661012a9139600d90805190602001906200013e92919062001aa7565b506040518061024001604052806040518060400160405280600681526020017f303430333033000000000000000000000000000000000000000000000000000081525081526020016040518060400160405280600681526020017f303030303030000000000000000000000000000000000000000000000000000081525081526020016040518060400160405280600681526020017f314631443336000000000000000000000000000000000000000000000000000081525081526020016040518060400160405280600681526020017f313931413139000000000000000000000000000000000000000000000000000081525081526020016040518060400160405280600681526020017f353935323630000000000000000000000000000000000000000000000000000081525081526020016040518060400160405280600681526020017f343233463345000000000000000000000000000000000000000000000000000081525081526020016040518060400160405280600681526020017f323331453233000000000000000000000000000000000000000000000000000081525081526020016040518060400160405280600681526020017f333933323332000000000000000000000000000000000000000000000000000081525081526020016040518060400160405280600681526020017f323232383331000000000000000000000000000000000000000000000000000081525081526020016040518060400160405280600681526020017f333633363336000000000000000000000000000000000000000000000000000081525081526020016040518060400160405280600681526020017f314232363243000000000000000000000000000000000000000000000000000081525081526020016040518060400160405280600681526020017f333233323332000000000000000000000000000000000000000000000000000081525081526020016040518060400160405280600681526020017f333333333333000000000000000000000000000000000000000000000000000081525081526020016040518060400160405280600681526020017f373036433631000000000000000000000000000000000000000000000000000081525081526020016040518060400160405280600681526020017f344434363436000000000000000000000000000000000000000000000000000081525081526020016040518060400160405280600681526020017f334133353335000000000000000000000000000000000000000000000000000081525081526020016040518060400160405280600681526020017f324232423238000000000000000000000000000000000000000000000000000081525081526020016040518060400160405280600681526020017f3546363736390000000000000000000000000000000000000000000000000000815250815250600e9060126200058192919062001b38565b506040518061020001604052806040518060400160405280600681526020017f454444324633000000000000000000000000000000000000000000000000000081525081526020016040518060400160405280600681526020017f464641464146000000000000000000000000000000000000000000000000000081525081526020016040518060400160405280600681526020017f434545354430000000000000000000000000000000000000000000000000000081525081526020016040518060400160405280600681526020017f383741414141000000000000000000000000000000000000000000000000000081525081526020016040518060400160405280600681526020017f434446324341000000000000000000000000000000000000000000000000000081525081526020016040518060400160405280600681526020017f433146464437000000000000000000000000000000000000000000000000000081525081526020016040518060400160405280600681526020017f373942344237000000000000000000000000000000000000000000000000000081525081526020016040518060400160405280600681526020017f393342354336000000000000000000000000000000000000000000000000000081525081526020016040518060400160405280600681526020017f323846464246000000000000000000000000000000000000000000000000000081525081526020016040518060400160405280600681526020017f423545414541000000000000000000000000000000000000000000000000000081525081526020016040518060400160405280600681526020017f443945344444000000000000000000000000000000000000000000000000000081525081526020016040518060400160405280600681526020017f394142334635000000000000000000000000000000000000000000000000000081525081526020016040518060400160405280600681526020017f453045434534000000000000000000000000000000000000000000000000000081525081526020016040518060400160405280600681526020017f434646464645000000000000000000000000000000000000000000000000000081525081526020016040518060400160405280600681526020017f434646364346000000000000000000000000000000000000000000000000000081525081526020016040518060400160405280600681526020017f3633423741460000000000000000000000000000000000000000000000000000815250815250600f9060106200094e92919062001b9f565b506040518061022001604052806040518060400160405280600681526020017f463746443034000000000000000000000000000000000000000000000000000081525081526020016040518060400160405280600681526020017f464642453046000000000000000000000000000000000000000000000000000081525081526020016040518060400160405280600681526020017f463644413633000000000000000000000000000000000000000000000000000081525081526020016040518060400160405280600681526020017f464644383638000000000000000000000000000000000000000000000000000081525081526020016040518060400160405280600681526020017f464643333030000000000000000000000000000000000000000000000000000081525081526020016040518060400160405280600681526020017f464546463839000000000000000000000000000000000000000000000000000081525081526020016040518060400160405280600681526020017f463746443034000000000000000000000000000000000000000000000000000081525081526020016040518060400160405280600681526020017f464244343644000000000000000000000000000000000000000000000000000081525081526020016040518060400160405280600681526020017f464246463030000000000000000000000000000000000000000000000000000081525081526020016040518060400160405280600681526020017f464545343430000000000000000000000000000000000000000000000000000081525081526020016040518060400160405280600681526020017f464645463738000000000000000000000000000000000000000000000000000081525081526020016040518060400160405280600681526020017f464346464136000000000000000000000000000000000000000000000000000081525081526020016040518060400160405280600681526020017f464543323630000000000000000000000000000000000000000000000000000081525081526020016040518060400160405280600681526020017f464543323630000000000000000000000000000000000000000000000000000081525081526020016040518060400160405280600681526020017f464645343539000000000000000000000000000000000000000000000000000081525081526020016040518060400160405280600681526020017f464646343744000000000000000000000000000000000000000000000000000081525081526020016040518060400160405280600681526020017f4646463333380000000000000000000000000000000000000000000000000000815250815250601090601162000d5692919062001c06565b506040518061024001604052806040518060400160405280600681526020017f464634383438000000000000000000000000000000000000000000000000000081525081526020016040518060400160405280600681526020017f464633463030000000000000000000000000000000000000000000000000000081525081526020016040518060400160405280600681526020017f464335343034000000000000000000000000000000000000000000000000000081525081526020016040518060400160405280600681526020017f464131453045000000000000000000000000000000000000000000000000000081525081526020016040518060400160405280600681526020017f453430303137000000000000000000000000000000000000000000000000000081525081526020016040518060400160405280600681526020017f464634363436000000000000000000000000000000000000000000000000000081525081526020016040518060400160405280600681526020017f434431383138000000000000000000000000000000000000000000000000000081525081526020016040518060400160405280600681526020017f464630303030000000000000000000000000000000000000000000000000000081525081526020016040518060400160405280600681526020017f464634383438000000000000000000000000000000000000000000000000000081525081526020016040518060400160405280600681526020017f444130303337000000000000000000000000000000000000000000000000000081525081526020016040518060400160405280600681526020017f463534373438000000000000000000000000000000000000000000000000000081525081526020016040518060400160405280600681526020017f434630303030000000000000000000000000000000000000000000000000000081525081526020016040518060400160405280600681526020017f464233363430000000000000000000000000000000000000000000000000000081525081526020016040518060400160405280600681526020017f424432303030000000000000000000000000000000000000000000000000000081525081526020016040518060400160405280600681526020017f453430303137000000000000000000000000000000000000000000000000000081525081526020016040518060400160405280600681526020017f454334363436000000000000000000000000000000000000000000000000000081525081526020016040518060400160405280600681526020017f463035343534000000000000000000000000000000000000000000000000000081525081526020016040518060400160405280600681526020017f464634313444000000000000000000000000000000000000000000000000000081525081525060119060126200119992919062001b38565b50604051806103e001604052806040518060400160405280600681526020017f333434434237000000000000000000000000000000000000000000000000000081525081526020016040518060400160405280600681526020017f353737424331000000000000000000000000000000000000000000000000000081525081526020016040518060400160405280600681526020017f313631453534000000000000000000000000000000000000000000000000000081525081526020016040518060400160405280600681526020017f333941333838000000000000000000000000000000000000000000000000000081525081526020016040518060400160405280600681526020017f323534314232000000000000000000000000000000000000000000000000000081525081526020016040518060400160405280600681526020017f334544424630000000000000000000000000000000000000000000000000000081525081526020016040518060400160405280600681526020017f353743433939000000000000000000000000000000000000000000000000000081525081526020016040518060400160405280600681526020017f313835414442000000000000000000000000000000000000000000000000000081525081526020016040518060400160405280600681526020017f344134374133000000000000000000000000000000000000000000000000000081525081526020016040518060400160405280600681526020017f364533434243000000000000000000000000000000000000000000000000000081525081526020016040518060400160405280600681526020017f333442453832000000000000000000000000000000000000000000000000000081525081526020016040518060400160405280600681526020017f363443394346000000000000000000000000000000000000000000000000000081525081526020016040518060400160405280600681526020017f383930353936000000000000000000000000000000000000000000000000000081525081526020016040518060400160405280600681526020017f433746464438000000000000000000000000000000000000000000000000000081525081526020016040518060400160405280600681526020017f343946463030000000000000000000000000000000000000000000000000000081525081526020016040518060400160405280600681526020017f464630303735000000000000000000000000000000000000000000000000000081525081526020016040518060400160405280600681526020017f413033433738000000000000000000000000000000000000000000000000000081525081526020016040518060400160405280600681526020017f443833413536000000000000000000000000000000000000000000000000000081525081526020016040518060400160405280600681526020017f433332424144000000000000000000000000000000000000000000000000000081525081526020016040518060400160405280600681526020017f454239324245000000000000000000000000000000000000000000000000000081525081526020016040518060400160405280600681526020017f323937463837000000000000000000000000000000000000000000000000000081525081526020016040518060400160405280600681526020017f443632414430000000000000000000000000000000000000000000000000000081525081526020016040518060400160405280600681526020017f464634343946000000000000000000000000000000000000000000000000000081525081526020016040518060400160405280600681526020017f443437414538000000000000000000000000000000000000000000000000000081525081526020016040518060400160405280600681526020017f414534434346000000000000000000000000000000000000000000000000000081525081526020016040518060400160405280600681526020017f464630304534000000000000000000000000000000000000000000000000000081525081526020016040518060400160405280600681526020017f353230303641000000000000000000000000000000000000000000000000000081525081526020016040518060400160405280600681526020017f394435433044000000000000000000000000000000000000000000000000000081525081526020016040518060400160405280600681526020017f303041313944000000000000000000000000000000000000000000000000000081525081526020016040518060400160405280600681526020017f323142463733000000000000000000000000000000000000000000000000000081525081526020016040518060400160405280600681526020017f4441374638460000000000000000000000000000000000000000000000000000815250815250601290601f620018db92919062001c6d565b50348015620018e957600080fd5b506040518060400160405280600981526020017f546f6e61646f4e465400000000000000000000000000000000000000000000008152506040518060400160405280600681526020017f546f6e61646f000000000000000000000000000000000000000000000000000081525081600090805190602001906200196e92919062001aa7565b5080600190805190602001906200198792919062001aa7565b505050620019d56040518060400160405280601e81526020017f54686973206973206d79204e465420636f6e74726163742e20576f6168210000815250620019db60201b620011b11760201c565b62001e8e565b62001a7b81604051602401620019f2919062001da2565b6040516020818303038152906040527f41304fac000000000000000000000000000000000000000000000000000000007bffffffffffffffffffffffffffffffffffffffffffffffffffffffff19166020820180517bffffffffffffffffffffffffffffffffffffffffffffffffffffffff838183161783525050505062001a7e60201b60201c565b50565b60008151905060006a636f6e736f6c652e6c6f679050602083016000808483855afa5050505050565b82805462001ab59062001e18565b90600052602060002090601f01602090048101928262001ad9576000855562001b25565b82601f1062001af457805160ff191683800117855562001b25565b8280016001018555821562001b25579182015b8281111562001b2457825182559160200191906001019062001b07565b5b50905062001b34919062001cd4565b5090565b82805482825590600052602060002090810192821562001b8c579160200282015b8281111562001b8b57825182908051906020019062001b7a92919062001aa7565b509160200191906001019062001b59565b5b50905062001b9b919062001cf3565b5090565b82805482825590600052602060002090810192821562001bf3579160200282015b8281111562001bf257825182908051906020019062001be192919062001aa7565b509160200191906001019062001bc0565b5b50905062001c02919062001cf3565b5090565b82805482825590600052602060002090810192821562001c5a579160200282015b8281111562001c5957825182908051906020019062001c4892919062001aa7565b509160200191906001019062001c27565b5b50905062001c69919062001cf3565b5090565b82805482825590600052602060002090810192821562001cc1579160200282015b8281111562001cc057825182908051906020019062001caf92919062001aa7565b509160200191906001019062001c8e565b5b50905062001cd0919062001cf3565b5090565b5b8082111562001cef57600081600090555060010162001cd5565b5090565b5b8082111562001d17576000818162001d0d919062001d1b565b5060010162001cf4565b5090565b50805462001d299062001e18565b6000825580601f1062001d3d575062001d5e565b601f01602090049060005260206000209081019062001d5d919062001cd4565b5b50565b600062001d6e8262001dc6565b62001d7a818562001dd1565b935062001d8c81856020860162001de2565b62001d978162001e7d565b840191505092915050565b6000602082019050818103600083015262001dbe818462001d61565b905092915050565b600081519050919050565b600082825260208201905092915050565b60005b8381101562001e0257808201518184015260208101905062001de5565b8381111562001e12576000848401525b50505050565b6000600282049050600182168062001e3157607f821691505b6020821081141562001e485762001e4762001e4e565b5b50919050565b7f4e487b7100000000000000000000000000000000000000000000000000000000600052602260045260246000fd5b6000601f19601f8301169050919050565b613bb28062001e9e6000396000f3fe608060405234801561001057600080fd5b50600436106100f55760003560e01c80636b5c6e0711610097578063b88d4fde11610066578063b88d4fde14610296578063c87b56dd146102b2578063de9d132f146102e2578063e985e9c5146102ec576100f5565b80636b5c6e07146101fc57806370a082311461022c57806395d89b411461025c578063a22cb4651461027a576100f5565b8063095ea7b3116100d3578063095ea7b31461017857806323b872dd1461019457806342842e0e146101b05780636352211e146101cc576100f5565b806301ffc9a7146100fa57806306fdde031461012a578063081812fc14610148575b600080fd5b610114600480360381019061010f91906126a4565b61031c565b60405161012191906133c2565b60405180910390f35b6101326103fe565b60405161013f91906133dd565b60405180910390f35b610162600480360381019061015d91906126f6565b610490565b60405161016f9190613332565b60405180910390f35b610192600480360381019061018d9190612668565b610515565b005b6101ae60048036038101906101a99190612562565b61062d565b005b6101ca60048036038101906101c59190612562565b61068d565b005b6101e660048036038101906101e191906126f6565b6106ad565b6040516101f39190613332565b60405180910390f35b6102166004803603810190610211919061271f565b61075f565b60405161022391906133dd565b60405180910390f35b610246600480360381019061024191906124fd565b6107ee565b604051610253919061363d565b60405180910390f35b6102646108a6565b60405161027191906133dd565b60405180910390f35b610294600480360381019061028f919061262c565b610938565b005b6102b060048036038101906102ab91906125b1565b61094e565b005b6102cc60048036038101906102c791906126f6565b6109b0565b6040516102d991906133dd565b60405180910390f35b6102ea610b02565b005b61030660048036038101906103019190612526565b61111d565b60405161031391906133c2565b60405180910390f35b60007f80ac58cd000000000000000000000000000000000000000000000000000000007bffffffffffffffffffffffffffffffffffffffffffffffffffffffff1916827bffffffffffffffffffffffffffffffffffffffffffffffffffffffff191614806103e757507f5b5e139f000000000000000000000000000000000000000000000000000000007bffffffffffffffffffffffffffffffffffffffffffffffffffffffff1916827bffffffffffffffffffffffffffffffffffffffffffffffffffffffff1916145b806103f757506103f68261124a565b5b9050919050565b60606000805461040d90613938565b80601f016020809104026020016040519081016040528092919081815260200182805461043990613938565b80156104865780601f1061045b57610100808354040283529160200191610486565b820191906000526020600020905b81548152906001019060200180831161046957829003601f168201915b5050505050905090565b600061049b826112b4565b6104da576040517f08c379a00000000000000000000000000000000000000000000000000000000081526004016104d19061359d565b60405180910390fd5b6004600083815260200190815260200160002060009054906101000a900473ffffffffffffffffffffffffffffffffffffffff169050919050565b6000610520826106ad565b90508073ffffffffffffffffffffffffffffffffffffffff168373ffffffffffffffffffffffffffffffffffffffff161415610591576040517f08c379a0000000000000000000000000000000000000000000000000000000008152600401610588906135fd565b60405180910390fd5b8073ffffffffffffffffffffffffffffffffffffffff166105b0611320565b73ffffffffffffffffffffffffffffffffffffffff1614806105df57506105de816105d9611320565b61111d565b5b61061e576040517f08c379a0000000000000000000000000000000000000000000000000000000008152600401610615906134dd565b60405180910390fd5b6106288383611328565b505050565b61063e610638611320565b826113e1565b61067d576040517f08c379a00000000000000000000000000000000000000000000000000000000081526004016106749061361d565b60405180910390fd5b6106888383836114bf565b505050565b6106a88383836040518060200160405280600081525061094e565b505050565b6000806002600084815260200190815260200160002060009054906101000a900473ffffffffffffffffffffffffffffffffffffffff169050600073ffffffffffffffffffffffffffffffffffffffff168173ffffffffffffffffffffffffffffffffffffffff161415610756576040517f08c379a000000000000000000000000000000000000000000000000000000000815260040161074d9061351d565b60405180910390fd5b80915050919050565b6060600061079361076f8561171b565b60405160200161077f91906132ee565b6040516020818303038152906040526118c8565b90508251816107a291906139bd565b90508281815181106107dd577f4e487b7100000000000000000000000000000000000000000000000000000000600052603260045260246000fd5b602002602001015191505092915050565b60008073ffffffffffffffffffffffffffffffffffffffff168273ffffffffffffffffffffffffffffffffffffffff16141561085f576040517f08c379a0000000000000000000000000000000000000000000000000000000008152600401610856906134fd565b60405180910390fd5b600360008373ffffffffffffffffffffffffffffffffffffffff1673ffffffffffffffffffffffffffffffffffffffff168152602001908152602001600020549050919050565b6060600180546108b590613938565b80601f01602080910402602001604051908101604052809291908181526020018280546108e190613938565b801561092e5780601f106109035761010080835404028352916020019161092e565b820191906000526020600020905b81548152906001019060200180831161091157829003601f168201915b5050505050905090565b61094a610943611320565b83836118ff565b5050565b61095f610959611320565b836113e1565b61099e576040517f08c379a00000000000000000000000000000000000000000000000000000000081526004016109959061361d565b60405180910390fd5b6109aa84848484611a6c565b50505050565b60606109bb826112b4565b6109fa576040517f08c379a00000000000000000000000000000000000000000000000000000000081526004016109f19061357d565b60405180910390fd5b6000600660008481526020019081526020016000208054610a1a90613938565b80601f0160208091040260200160405190810160405280929190818152602001828054610a4690613938565b8015610a935780601f10610a6857610100808354040283529160200191610a93565b820191906000526020600020905b815481529060010190602001808311610a7657829003601f168201915b505050505090506000610aa4611ac8565b9050600081511415610aba578192505050610afd565b600082511115610aef578082604051602001610ad7929190613153565b60405160208183030381529060405292505050610afd565b610af884611adf565b925050505b919050565b6000610b0e6007611b86565b90506000610bed826012805480602002602001604051908101604052809291908181526020016000905b82821015610be4578382906000526020600020018054610b5790613938565b80601f0160208091040260200160405190810160405280929190818152602001828054610b8390613938565b8015610bd05780601f10610ba557610100808354040283529160200191610bd0565b820191906000526020600020905b815481529060010190602001808311610bb357829003601f168201915b505050505081526020019060010190610b38565b5050505061075f565b90506000610ccc83600f805480602002602001604051908101604052809291908181526020016000905b82821015610cc3578382906000526020600020018054610c3690613938565b80601f0160208091040260200160405190810160405280929190818152602001828054610c6290613938565b8015610caf5780601f10610c8457610100808354040283529160200191610caf565b820191906000526020600020905b815481529060010190602001808311610c9257829003601f168201915b505050505081526020019060010190610c17565b5050505061075f565b90506000610dab84600e805480602002602001604051908101604052809291908181526020016000905b82821015610da2578382906000526020600020018054610d1590613938565b80601f0160208091040260200160405190810160405280929190818152602001828054610d4190613938565b8015610d8e5780601f10610d6357610100808354040283529160200191610d8e565b820191906000526020600020905b815481529060010190602001808311610d7157829003601f168201915b505050505081526020019060010190610cf6565b5050505061075f565b90506000610e8a856010805480602002602001604051908101604052809291908181526020016000905b82821015610e81578382906000526020600020018054610df490613938565b80601f0160208091040260200160405190810160405280929190818152602001828054610e2090613938565b8015610e6d5780601f10610e4257610100808354040283529160200191610e6d565b820191906000526020600020905b815481529060010190602001808311610e5057829003601f168201915b505050505081526020019060010190610dd5565b5050505061075f565b90506000610f69866011805480602002602001604051908101604052809291908181526020016000905b82821015610f60578382906000526020600020018054610ed390613938565b80601f0160208091040260200160405190810160405280929190818152602001828054610eff90613938565b8015610f4c5780601f10610f2157610100808354040283529160200191610f4c565b820191906000526020600020905b815481529060010190602001808311610f2f57829003601f168201915b505050505081526020019060010190610eb4565b5050505061075f565b90506000600886600987600a86600b8a600c8b600d604051602001610f989b9a999897969594939291906131b0565b60405160208183030381529060405290506000610fed610fb78961171b565b88878787610fc488611b94565b604051602001610fd996959493929190613249565b604051602081830303815290604052611b94565b90506000816040516020016110029190613310565b60405160208183030381529060405290506110516040518060400160405280601581526020017f0a2d2d2d2d2d2d2d2d2d2d2d2d2d2d2d2d2d2d2d2d00000000000000000000008152506111b1565b61105a816111b1565b6110986040518060400160405280601581526020017f2d2d2d2d2d2d2d2d2d2d2d2d2d2d2d2d2d2d2d2d0a00000000000000000000008152506111b1565b6110a2338a611d52565b6110ac8982611d70565b6110b66007611de4565b6110d9604051806060016040528060258152602001613b18602591398a33611dfa565b7febb98688741ffa4c7589bf325de30cf7becb63de567842e1ccdb6cb949fdc82c338a60405161110a929190613399565b60405180910390a1505050505050505050565b6000600560008473ffffffffffffffffffffffffffffffffffffffff1673ffffffffffffffffffffffffffffffffffffffff16815260200190815260200160002060008373ffffffffffffffffffffffffffffffffffffffff1673ffffffffffffffffffffffffffffffffffffffff16815260200190815260200160002060009054906101000a900460ff16905092915050565b611247816040516024016111c591906133dd565b6040516020818303038152906040527f41304fac000000000000000000000000000000000000000000000000000000007bffffffffffffffffffffffffffffffffffffffffffffffffffffffff19166020820180517bffffffffffffffffffffffffffffffffffffffffffffffffffffffff8381831617835250505050611e99565b50565b60007f01ffc9a7000000000000000000000000000000000000000000000000000000007bffffffffffffffffffffffffffffffffffffffffffffffffffffffff1916827bffffffffffffffffffffffffffffffffffffffffffffffffffffffff1916149050919050565b60008073ffffffffffffffffffffffffffffffffffffffff166002600084815260200190815260200160002060009054906101000a900473ffffffffffffffffffffffffffffffffffffffff1673ffffffffffffffffffffffffffffffffffffffff1614159050919050565b600033905090565b816004600083815260200190815260200160002060006101000a81548173ffffffffffffffffffffffffffffffffffffffff021916908373ffffffffffffffffffffffffffffffffffffffff160217905550808273ffffffffffffffffffffffffffffffffffffffff1661139b836106ad565b73ffffffffffffffffffffffffffffffffffffffff167f8c5be1e5ebec7d5bd14f71427d1e84f3dd0314c0f7b2291e5b200ac8c7c3b92560405160405180910390a45050565b60006113ec826112b4565b61142b576040517f08c379a0000000000000000000000000000000000000000000000000000000008152600401611422906134bd565b60405180910390fd5b6000611436836106ad565b90508073ffffffffffffffffffffffffffffffffffffffff168473ffffffffffffffffffffffffffffffffffffffff1614806114a557508373ffffffffffffffffffffffffffffffffffffffff1661148d84610490565b73ffffffffffffffffffffffffffffffffffffffff16145b806114b657506114b5818561111d565b5b91505092915050565b8273ffffffffffffffffffffffffffffffffffffffff166114df826106ad565b73ffffffffffffffffffffffffffffffffffffffff1614611535576040517f08c379a000000000000000000000000000000000000000000000000000000000815260040161152c906135bd565b60405180910390fd5b600073ffffffffffffffffffffffffffffffffffffffff168273ffffffffffffffffffffffffffffffffffffffff1614156115a5576040517f08c379a000000000000000000000000000000000000000000000000000000000815260040161159c9061347d565b60405180910390fd5b6115b0838383611ec2565b6115bb600082611328565b6001600360008573ffffffffffffffffffffffffffffffffffffffff1673ffffffffffffffffffffffffffffffffffffffff168152602001908152602001600020600082825461160b919061384e565b925050819055506001600360008473ffffffffffffffffffffffffffffffffffffffff1673ffffffffffffffffffffffffffffffffffffffff1681526020019081526020016000206000828254611662919061376d565b92505081905550816002600083815260200190815260200160002060006101000a81548173ffffffffffffffffffffffffffffffffffffffff021916908373ffffffffffffffffffffffffffffffffffffffff160217905550808273ffffffffffffffffffffffffffffffffffffffff168473ffffffffffffffffffffffffffffffffffffffff167fddf252ad1be2c89b69c2b068fc378daa952ba7f163c4a11628f55a4df523b3ef60405160405180910390a4505050565b60606000821415611763576040518060400160405280600181526020017f300000000000000000000000000000000000000000000000000000000000000081525090506118c3565b600082905060005b6000821461179557808061177e9061396a565b915050600a8261178e91906137c3565b915061176b565b60008167ffffffffffffffff8111156117d7577f4e487b7100000000000000000000000000000000000000000000000000000000600052604160045260246000fd5b6040519080825280601f01601f1916602001820160405280156118095781602001600182028036833780820191505090505b5090505b600085146118bc57600182611822919061384e565b9150600a8561183191906139bd565b603061183d919061376d565b60f81b818381518110611879577f4e487b7100000000000000000000000000000000000000000000000000000000600052603260045260246000fd5b60200101907effffffffffffffffffffffffffffffffffffffffffffffffffffffffffffff1916908160001a905350600a856118b591906137c3565b945061180d565b8093505050505b919050565b60008144426040516020016118df93929190613177565b6040516020818303038152906040528051906020012060001c9050919050565b8173ffffffffffffffffffffffffffffffffffffffff168373ffffffffffffffffffffffffffffffffffffffff16141561196e576040517f08c379a00000000000000000000000000000000000000000000000000000000081526004016119659061349d565b60405180910390fd5b80600560008573ffffffffffffffffffffffffffffffffffffffff1673ffffffffffffffffffffffffffffffffffffffff16815260200190815260200160002060008473ffffffffffffffffffffffffffffffffffffffff1673ffffffffffffffffffffffffffffffffffffffff16815260200190815260200160002060006101000a81548160ff0219169083151502179055508173ffffffffffffffffffffffffffffffffffffffff168373ffffffffffffffffffffffffffffffffffffffff167f17307eab39ab6107e8899845ad3d59bd9653f200f220920489ca2b5937696c3183604051611a5f91906133c2565b60405180910390a3505050565b611a778484846114bf565b611a8384848484611ec7565b611ac2576040517f08c379a0000000000000000000000000000000000000000000000000000000008152600401611ab99061343d565b60405180910390fd5b50505050565b606060405180602001604052806000815250905090565b6060611aea826112b4565b611b29576040517f08c379a0000000000000000000000000000000000000000000000000000000008152600401611b20906135dd565b60405180910390fd5b6000611b33611ac8565b90506000815111611b535760405180602001604052806000815250611b7e565b80611b5d8461171b565b604051602001611b6e929190613153565b6040516020818303038152906040525b915050919050565b600081600001549050919050565b60606000825190506000811415611bbd5760405180602001604052806000815250915050611d4d565b60006003600283611bce919061376d565b611bd891906137c3565b6004611be491906137f4565b90506000602082611bf5919061376d565b67ffffffffffffffff811115611c34577f4e487b7100000000000000000000000000000000000000000000000000000000600052604160045260246000fd5b6040519080825280601f01601f191660200182016040528015611c665781602001600182028036833780820191505090505b5090506000604051806060016040528060408152602001613b3d604091399050600181016020830160005b86811015611d0a5760038101905062ffffff818a015116603f8160121c168401518060081b905060ff603f83600c1c1686015116810190508060081b905060ff603f8360061c1686015116810190508060081b905060ff603f831686015116810190508060e01b90508084526004840193505050611c91565b506003860660018114611d245760028114611d3457611d3f565b613d3d60f01b6002830352611d3f565b603d60f81b60018303525b508484525050819450505050505b919050565b611d6c82826040518060200160405280600081525061205e565b5050565b611d79826112b4565b611db8576040517f08c379a0000000000000000000000000000000000000000000000000000000008152600401611daf9061353d565b60405180910390fd5b80600660008481526020019081526020016000209080519060200190611ddf92919061229a565b505050565b6001816000016000828254019250508190555050565b611e94838383604051602401611e12939291906133ff565b6040516020818303038152906040527fe3849f79000000000000000000000000000000000000000000000000000000007bffffffffffffffffffffffffffffffffffffffffffffffffffffffff19166020820180517bffffffffffffffffffffffffffffffffffffffffffffffffffffffff8381831617835250505050611e99565b505050565b60008151905060006a636f6e736f6c652e6c6f679050602083016000808483855afa5050505050565b505050565b6000611ee88473ffffffffffffffffffffffffffffffffffffffff166120b9565b15612051578373ffffffffffffffffffffffffffffffffffffffff1663150b7a02611f11611320565b8786866040518563ffffffff1660e01b8152600401611f33949392919061334d565b602060405180830381600087803b158015611f4d57600080fd5b505af1925050508015611f7e57506040513d601f19601f82011682018060405250810190611f7b91906126cd565b60015b612001573d8060008114611fae576040519150601f19603f3d011682016040523d82523d6000602084013e611fb3565b606091505b50600081511415611ff9576040517f08c379a0000000000000000000000000000000000000000000000000000000008152600401611ff09061343d565b60405180910390fd5b805181602001fd5b63150b7a0260e01b7bffffffffffffffffffffffffffffffffffffffffffffffffffffffff1916817bffffffffffffffffffffffffffffffffffffffffffffffffffffffff191614915050612056565b600190505b949350505050565b61206883836120cc565b6120756000848484611ec7565b6120b4576040517f08c379a00000000000000000000000000000000000000000000000000000000081526004016120ab9061343d565b60405180910390fd5b505050565b600080823b905060008111915050919050565b600073ffffffffffffffffffffffffffffffffffffffff168273ffffffffffffffffffffffffffffffffffffffff16141561213c576040517f08c379a00000000000000000000000000000000000000000000000000000000081526004016121339061355d565b60405180910390fd5b612145816112b4565b15612185576040517f08c379a000000000000000000000000000000000000000000000000000000000815260040161217c9061345d565b60405180910390fd5b61219160008383611ec2565b6001600360008473ffffffffffffffffffffffffffffffffffffffff1673ffffffffffffffffffffffffffffffffffffffff16815260200190815260200160002060008282546121e1919061376d565b92505081905550816002600083815260200190815260200160002060006101000a81548173ffffffffffffffffffffffffffffffffffffffff021916908373ffffffffffffffffffffffffffffffffffffffff160217905550808273ffffffffffffffffffffffffffffffffffffffff16600073ffffffffffffffffffffffffffffffffffffffff167fddf252ad1be2c89b69c2b068fc378daa952ba7f163c4a11628f55a4df523b3ef60405160405180910390a45050565b8280546122a690613938565b90600052602060002090601f0160209004810192826122c8576000855561230f565b82601f106122e157805160ff191683800117855561230f565b8280016001018555821561230f579182015b8281111561230e5782518255916020019190600101906122f3565b5b50905061231c9190612320565b5090565b5b80821115612339576000816000905550600101612321565b5090565b600061235061234b84613689565b613658565b9050808382526020820190508260005b85811015612390578135850161237688826124be565b845260208401935060208301925050600181019050612360565b5050509392505050565b60006123ad6123a8846136b5565b613658565b9050828152602081018484840111156123c557600080fd5b6123d08482856138f6565b509392505050565b60006123eb6123e6846136e5565b613658565b90508281526020810184848401111561240357600080fd5b61240e8482856138f6565b509392505050565b60008135905061242581613abb565b92915050565b600082601f83011261243c57600080fd5b813561244c84826020860161233d565b91505092915050565b60008135905061246481613ad2565b92915050565b60008135905061247981613ae9565b92915050565b60008151905061248e81613ae9565b92915050565b600082601f8301126124a557600080fd5b81356124b584826020860161239a565b91505092915050565b600082601f8301126124cf57600080fd5b81356124df8482602086016123d8565b91505092915050565b6000813590506124f781613b00565b92915050565b60006020828403121561250f57600080fd5b600061251d84828501612416565b91505092915050565b6000806040838503121561253957600080fd5b600061254785828601612416565b925050602061255885828601612416565b9150509250929050565b60008060006060848603121561257757600080fd5b600061258586828701612416565b935050602061259686828701612416565b92505060406125a7868287016124e8565b9150509250925092565b600080600080608085870312156125c757600080fd5b60006125d587828801612416565b94505060206125e687828801612416565b93505060406125f7878288016124e8565b925050606085013567ffffffffffffffff81111561261457600080fd5b61262087828801612494565b91505092959194509250565b6000806040838503121561263f57600080fd5b600061264d85828601612416565b925050602061265e85828601612455565b9150509250929050565b6000806040838503121561267b57600080fd5b600061268985828601612416565b925050602061269a858286016124e8565b9150509250929050565b6000602082840312156126b657600080fd5b60006126c48482850161246a565b91505092915050565b6000602082840312156126df57600080fd5b60006126ed8482850161247f565b91505092915050565b60006020828403121561270857600080fd5b6000612716848285016124e8565b91505092915050565b6000806040838503121561273257600080fd5b6000612740858286016124e8565b925050602083013567ffffffffffffffff81111561275d57600080fd5b6127698582860161242b565b9150509250929050565b61277c81613882565b82525050565b61278b81613894565b82525050565b600061279c8261372a565b6127a68185613740565b93506127b6818560208601613905565b6127bf81613aaa565b840191505092915050565b60006127d582613735565b6127df8185613751565b93506127ef818560208601613905565b6127f881613aaa565b840191505092915050565b600061280e82613735565b6128188185613762565b9350612828818560208601613905565b80840191505092915050565b6000815461284181613938565b61284b8186613762565b945060018216600081146128665760018114612877576128aa565b60ff198316865281860193506128aa565b61288085613715565b60005b838110156128a257815481890152600182019150602081019050612883565b838801955050505b50505092915050565b60006128c0601283613762565b91507f7b226e616d65223a22546f726e61646f202300000000000000000000000000006000830152601282019050919050565b6000612900601083613762565b91507f202c204261636b204c696768743a2023000000000000000000000000000000006000830152601082019050919050565b6000612940603283613751565b91507f4552433732313a207472616e7366657220746f206e6f6e20455243373231526560008301527f63656976657220696d706c656d656e74657200000000000000000000000000006020830152604082019050919050565b60006129a6601c83613751565b91507f4552433732313a20746f6b656e20616c7265616479206d696e746564000000006000830152602082019050919050565b60006129e6602183613762565b91507f222c20226465736372697074696f6e223a2022426f647920436f6c6f72203a2060008301527f23000000000000000000000000000000000000000000000000000000000000006020830152602182019050919050565b6000612a4c602483613751565b91507f4552433732313a207472616e7366657220746f20746865207a65726f2061646460008301527f72657373000000000000000000000000000000000000000000000000000000006020830152604082019050919050565b6000612ab2601983613751565b91507f4552433732313a20617070726f766520746f2063616c6c6572000000000000006000830152602082019050919050565b6000612af2600483613762565b91507f52616e64000000000000000000000000000000000000000000000000000000006000830152600482019050919050565b6000612b32602c83613751565b91507f4552433732313a206f70657261746f7220717565727920666f72206e6f6e657860008301527f697374656e7420746f6b656e00000000000000000000000000000000000000006020830152604082019050919050565b6000612b98603883613751565b91507f4552433732313a20617070726f76652063616c6c6572206973206e6f74206f7760008301527f6e6572206e6f7220617070726f76656420666f7220616c6c00000000000000006020830152604082019050919050565b6000612bfe602a83613751565b91507f4552433732313a2062616c616e636520717565727920666f7220746865207a6560008301527f726f2061646472657373000000000000000000000000000000000000000000006020830152604082019050919050565b6000612c64602983613751565b91507f4552433732313a206f776e657220717565727920666f72206e6f6e657869737460008301527f656e7420746f6b656e00000000000000000000000000000000000000000000006020830152604082019050919050565b6000612cca602e83613751565b91507f45524337323155524953746f726167653a2055524920736574206f66206e6f6e60008301527f6578697374656e7420746f6b656e0000000000000000000000000000000000006020830152604082019050919050565b6000612d30601283613762565b91507f2c20576865656c20436f6c6f72203a20232000000000000000000000000000006000830152601282019050919050565b6000612d70600283613762565b91507f227d0000000000000000000000000000000000000000000000000000000000006000830152600282019050919050565b6000612db0602083613751565b91507f4552433732313a206d696e7420746f20746865207a65726f20616464726573736000830152602082019050919050565b6000612df0601083613762565b91507f202c2048656164204c696768743a2023000000000000000000000000000000006000830152601082019050919050565b6000612e30603183613751565b91507f45524337323155524953746f726167653a2055524920717565727920666f722060008301527f6e6f6e6578697374656e7420746f6b656e0000000000000000000000000000006020830152604082019050919050565b6000612e96602c83613751565b91507f4552433732313a20617070726f76656420717565727920666f72206e6f6e657860008301527f697374656e7420746f6b656e00000000000000000000000000000000000000006020830152604082019050919050565b6000612efc602983613751565b91507f4552433732313a207472616e73666572206f6620746f6b656e2074686174206960008301527f73206e6f74206f776e00000000000000000000000000000000000000000000006020830152604082019050919050565b6000612f62602f83613751565b91507f4552433732314d657461646174613a2055524920717565727920666f72206e6f60008301527f6e6578697374656e7420746f6b656e00000000000000000000000000000000006020830152604082019050919050565b6000612fc8602783613762565b91507f20222c22696d616765223a2022646174613a696d6167652f7376672b786d6c3b60008301527f6261736536342c000000000000000000000000000000000000000000000000006020830152602782019050919050565b600061302e602183613751565b91507f4552433732313a20617070726f76616c20746f2063757272656e74206f776e6560008301527f72000000000000000000000000000000000000000000000000000000000000006020830152604082019050919050565b6000613094601d83613762565b91507f646174613a6170706c69636174696f6e2f6a736f6e3b6261736536342c0000006000830152601d82019050919050565b60006130d4603183613751565b91507f4552433732313a207472616e736665722063616c6c6572206973206e6f74206f60008301527f776e6572206e6f7220617070726f7665640000000000000000000000000000006020830152604082019050919050565b613136816138ec565b82525050565b61314d613148826138ec565b6139b3565b82525050565b600061315f8285612803565b915061316b8284612803565b91508190509392505050565b60006131838286612803565b915061318f828561313c565b60208201915061319f828461313c565b602082019150819050949350505050565b60006131bc828e612834565b91506131c8828d612803565b91506131d4828c612834565b91506131e0828b612803565b91506131ec828a612834565b91506131f88289612803565b91506132048288612834565b91506132108287612803565b915061321c8286612834565b91506132288285612803565b91506132348284612834565b91508190509c9b505050505050505050505050565b6000613254826128b3565b91506132608289612803565b915061326b826129d9565b91506132778288612803565b915061328282612d23565b915061328e8287612803565b915061329982612de3565b91506132a58286612803565b91506132b0826128f3565b91506132bc8285612803565b91506132c782612fbb565b91506132d38284612803565b91506132de82612d63565b9150819050979650505050505050565b60006132f982612ae5565b91506133058284612803565b915081905092915050565b600061331b82613087565b91506133278284612803565b915081905092915050565b60006020820190506133476000830184612773565b92915050565b60006080820190506133626000830187612773565b61336f6020830186612773565b61337c604083018561312d565b818103606083015261338e8184612791565b905095945050505050565b60006040820190506133ae6000830185612773565b6133bb602083018461312d565b9392505050565b60006020820190506133d76000830184612782565b92915050565b600060208201905081810360008301526133f781846127ca565b905092915050565b6000606082019050818103600083015261341981866127ca565b9050613428602083018561312d565b6134356040830184612773565b949350505050565b6000602082019050818103600083015261345681612933565b9050919050565b6000602082019050818103600083015261347681612999565b9050919050565b6000602082019050818103600083015261349681612a3f565b9050919050565b600060208201905081810360008301526134b681612aa5565b9050919050565b600060208201905081810360008301526134d681612b25565b9050919050565b600060208201905081810360008301526134f681612b8b565b9050919050565b6000602082019050818103600083015261351681612bf1565b9050919050565b6000602082019050818103600083015261353681612c57565b9050919050565b6000602082019050818103600083015261355681612cbd565b9050919050565b6000602082019050818103600083015261357681612da3565b9050919050565b6000602082019050818103600083015261359681612e23565b9050919050565b600060208201905081810360008301526135b681612e89565b9050919050565b600060208201905081810360008301526135d681612eef565b9050919050565b600060208201905081810360008301526135f681612f55565b9050919050565b6000602082019050818103600083015261361681613021565b9050919050565b60006020820190508181036000830152613636816130c7565b9050919050565b6000602082019050613652600083018461312d565b92915050565b6000604051905081810181811067ffffffffffffffff8211171561367f5761367e613a7b565b5b8060405250919050565b600067ffffffffffffffff8211156136a4576136a3613a7b565b5b602082029050602081019050919050565b600067ffffffffffffffff8211156136d0576136cf613a7b565b5b601f19601f8301169050602081019050919050565b600067ffffffffffffffff821115613700576136ff613a7b565b5b601f19601f8301169050602081019050919050565b60008190508160005260206000209050919050565b600081519050919050565b600081519050919050565b600082825260208201905092915050565b600082825260208201905092915050565b600081905092915050565b6000613778826138ec565b9150613783836138ec565b9250827fffffffffffffffffffffffffffffffffffffffffffffffffffffffffffffffff038211156137b8576137b76139ee565b5b828201905092915050565b60006137ce826138ec565b91506137d9836138ec565b9250826137e9576137e8613a1d565b5b828204905092915050565b60006137ff826138ec565b915061380a836138ec565b9250817fffffffffffffffffffffffffffffffffffffffffffffffffffffffffffffffff0483118215151615613843576138426139ee565b5b828202905092915050565b6000613859826138ec565b9150613864836138ec565b925082821015613877576138766139ee565b5b828203905092915050565b600061388d826138cc565b9050919050565b60008115159050919050565b60007fffffffff0000000000000000000000000000000000000000000000000000000082169050919050565b600073ffffffffffffffffffffffffffffffffffffffff82169050919050565b6000819050919050565b82818337600083830152505050565b60005b83811015613923578082015181840152602081019050613908565b83811115613932576000848401525b50505050565b6000600282049050600182168061395057607f821691505b6020821081141561396457613963613a4c565b5b50919050565b6000613975826138ec565b91507fffffffffffffffffffffffffffffffffffffffffffffffffffffffffffffffff8214156139a8576139a76139ee565b5b600182019050919050565b6000819050919050565b60006139c8826138ec565b91506139d3836138ec565b9250826139e3576139e2613a1d565b5b828206905092915050565b7f4e487b7100000000000000000000000000000000000000000000000000000000600052601160045260246000fd5b7f4e487b7100000000000000000000000000000000000000000000000000000000600052601260045260246000fd5b7f4e487b7100000000000000000000000000000000000000000000000000000000600052602260045260246000fd5b7f4e487b7100000000000000000000000000000000000000000000000000000000600052604160045260246000fd5b6000601f19601f8301169050919050565b613ac481613882565b8114613acf57600080fd5b50565b613adb81613894565b8114613ae657600080fd5b50565b613af2816138a0565b8114613afd57600080fd5b50565b613b09816138ec565b8114613b1457600080fd5b5056fe416e204e465420772f20494420257320686173206265656e206d696e74656420746f2025734142434445464748494a4b4c4d4e4f505152535455565758595a6162636465666768696a6b6c6d6e6f707172737475767778797a303132333435363738392b2fa26469706673582212205563d8dea345e8c19929cef08e3c10ef0b2e5e7b5cd3de80ded37945b16481cc64736f6c634300080000333c73766720786d6c6e733d27687474703a2f2f7777772e77332e6f72672f323030302f737667272076696577426f783d2730202d302e352032323820313431272073686170652d72656e646572696e673d2763726973704564676573273e3c70617468207374726f6b653d27232720643d274d38312031346837344d38312031356834354d3132372031356831374d3134352031356831304d38312031366836304d3134322031366831334d38312031376837344d38312031386837344d38312031396837344d38312032306835314d3133332032306832324d38312032316835304d3133322032316832334d38312032326832374d3130392032326834364d38312032336832304d31303220323368344d3130372032336834384d38312032346837304d31353220323468334d38312032356837344d38312032366832334d3130352032366833394d3134352032366831304d38312032376837344d3131312032386831354d36362032396831344d3131312032396831344d3135362032396831344d36362033306831344d31313120333068314d3131332033306831324d3135362033306831344d36362033316831344d3131312033316831344d3135362033316831344d36362033326831344d31313120333268354d31313720333268314d31313920333268364d3135362033326831344d36372033336831334d3131312033336831314d31323320333368324d3135362033336831344d36362033346831344d3131312033346831344d3135362033346831344d36362033356831344d3131312033356831344d3135362033356831344d36362033366831344d3131312033366831344d3135362033366831344d36362033376831344d3131312033376831344d3135362033376831344d36362033386831344d31313120333868344d31313620333868394d3135362033386831344d36362033396831314d373820333968324d31313120333968334d3131352033396831304d3135362033396831344d36362034306831344d3131312034306831344d3135362034306831344d36362034316831344d3131312034316831344d3135362034316831344d36362034326831344d31313120343268324d3131342034326831314d3135362034326831344d363620343368394d31313120343368394d31353620343368394d36362034346831344d3131312034346831344d3135362034346831344d363620343568354d373220343568384d3131312034356831344d3135362034356831344d36362034366831344d3131312034366831344d3135362034366831344d36362034376831344d3131312034376831344d3135362034376831344d36362034386831344d3131312034386831344d3135362034386831344d36362034396831344d3131312034396831344d3135362034396831344d36362035306831344d3131312035306831344d31353620353068364d31363320353068374d36362035316831344d3131312035316831344d3135362035316831344d36362035326831344d3131312035326831344d3135362035326831344d36362035336831344d3131312035336831344d3135362035336831344d363620353468364d373320353468374d31313120353468384d31323020353468354d3135362035346831344d36362035356831344d3131312035356831344d3135362035356831344d363620353668394d373620353668344d3131312035366831344d3135362035366831344d36362035376831344d3131312035376831344d3135362035376831344d363620353868394d31313120353868394d31353620353868394d33362035396832344d3631203539683133394d33362036306837364d3131332036306836304d3137342036306832364d3336203631683134374d31383420363168334d3138382036316831324d33362036326838344d3132312036326837394d3336203633683132374d3136342036336832314d3138362036336831344d33362036346831334d3530203634683135304d3336203635683136344d3336203636683136344d33362036376834394d3836203637683131344d3336203638683136344d3336203639683136344d33362037306838354d3132322037306836344d3138372037306831334d33362037316834304d37372037316831394d3937203731683130334d3336203732683131324d3134392037326835314d3531203733683131324d3136342037336833314d35312037346831394d3731203734683132394d35312037356839324d31343420373568354d3135302037356835304d3531203736683134394d3531203737683134394d3531203738683131344d3136362037386831384d3138352037386831354d35312037396835334d3130352037396831344d3132302037396837364d31393720373968334d35312038306832354d37372038306833354d3131332038306831354d3132392038306832344d3135342038306834364d35312038316839374d3134392038316835314d35312038326831304d3632203832683133384d3531203833683134394d35312038346834364d39382038346835324d3135312038346834394d3531203835683134394d35312038366831334d363520383668364d37322038366833304d3130332038366839374d3531203837683134394d353120383868374d353920383868374d39362038386834354d3137312038386831354d35312038396831344d39362038396834344d3137312038396831344d35312039306831344d39362039306832354d3132322039306831384d3137312039306831344d35312039316831344d39362039316834344d3137312039316831344d35312039326831344d39362039326832394d3132362039326831344d3137312039326831344d35312039336831344d39362039336834344d31373120393368354d31373720393368384d35312039346831344d39362039346833344d31333120393468394d3137312039346831344d35312039356831344d39362039356834344d3137312039356831344d35312039366831344d39362039366834344d3137312039366831344d35312039376831344d39362039376834344d3137312039376831344d35312039386831344d39362039386834344d3137312039386831344d35312039396831344d39362039396834344d3137312039396831344d3531203130306831344d3936203130306834344d313731203130306831344d3531203130316831344d3936203130316834344d313731203130316831344d3531203130326831344d3936203130326834344d31373120313032683134204d31323620313568314d31343420313568314d31343120313668314d31333220323068314d31303820323268314d31343420323668314d363620333368314d31313420333968314d31363220353068314d373220353468314d373520353668314d363020353968314d31383320363168314d31323020363268314d31383620373068314d393620373168314d31363520373868314d31353320383068314d31353020383468314d3130322038366831204d31333120323168314d31303120323368314d31303420323668314d31313620333268314d31323220333368314d373720333968314d31313320343268314d373120343568314d31313920353468314d31373320363068314d31383520363368314d31343320373568314d31343920373568314d31303420373968314d31313920373968314d31323820383068314d373120383668314d31323520393268314d3137362039336831204d31303620323368314d31353120323468314d31313220333068314d31313820333268314d31313520333868314d31313220363068314d31383720363168314d31363320363368314d343920363468314d383520363768314d31323120373068314d373620373168314d31343820373268314d31363320373368314d373020373468314d31383420373868314d31393620373968314d373620383068314d31313220383068314d31343820383168314d363120383268314d393720383468314d363420383668314d353820383868314d31323120393068314d3133302039346831204d383120323868394d393620323868394d31323620323868394d31343120323868394d383020323968314d31323520323968314d383020333068314d31323520333068314d383020333168314d31323520333168314d383020333268314d31323520333268314d383020333368314d31323520333368314d383020333468314d31323520333468314d383020333568314d31323520333568314d383020333668314d31323520333668314d383020333768314d31323520333768314d383020333868314d31323520333868314d383020333968314d31323520333968314d383020343068314d31323520343068314d383020343168314d31323520343168314d383020343268314d31323520343268314d383020343468314d31323520343468314d383020343568314d31323520343568314d383020343668314d31323520343668314d383020343768314d31323520343768314d383020343868314d31323520343868314d383020343968314d31323520343968314d383020353068314d31323520353068314d383020353168314d31323520353168314d383020353268314d31323520353268314d383020353368314d31323520353368314d383020353468314d31323520353468314d383020353568314d31323520353568314d383020353668314d31323520353668314d383020353768314d3132352035376831204d393020323868314d31303520323868314d31333520323868314d373620343368354d31323120343368354d373620353868354d3132312035386835204d393120323868354d31303620323868344d31333620323868354d373520343368314d31323020343368314d373520353868314d3132302035386831204d3131302032386831204d3135302032386831204d3135312032386835204d31363620343368344d31363620353868354d31393620373368344d313035204d31363520343368314d31363520353868314d31393520373368314d31303620272f3e3c70617468207374726f6b653d27232720643d274d38312032396832394d3132362032396832394d38312033306832394d3132362033306831314d31333820333068344d3134332033306831324d38312033316832394d31323620333168334d3133302033316832354d38312033326832394d3132362033326832394d38312033336832394d3132362033336832394d38312033346832364d31303820333468324d3132362033346832394d38312033356832394d3132362033356831304d3133372033356831354d31353320333568324d38312033366832394d3132362033366832394d38312033376832394d3132362033376832394d38312033386832394d3132362033386832394d38312033396831314d39332033396831374d3132362033396832394d38312034306832384d3132362034306832394d38312034316832394d3132372034316831384d31343620343168394d38312034326832394d3132362034326832394d38312034336831334d39352034336831304d3132362034336832344d38312034346832394d3132362034346832394d38312034356832394d3132362034356832394d38312034366832394d3132362034366832394d38312034376832394d31323620343768354d3133322034376832334d38312034386832394d3132362034386831334d3134302034386831354d383120343968354d38372034396832334d3132362034396832394d38312035306832394d31323620353068384d3133352035306832304d38312035316832394d3132362035316832394d38312035326832394d3132362035326832394d38312035336832394d3132362035336831364d3134332035336831324d38312035346832394d3132362035346832394d38312035356832394d3132362035356832394d38312035366832394d3132362035366832394d38312035376832394d313236203537683239204d31313020323968314d31353520323968314d31313020333068314d31353520333068314d31313020333168314d31353520333168314d31313020333268314d31353520333268314d31313020333368314d31353520333368314d31353520333468314d31313020333568314d31353520333568314d31313020333668314d31353520333668314d31313020333768314d31353520333768314d31313020333868314d31353520333868314d31313020333968314d31353520333968314d31313020343068314d31353520343068314d31313020343168314d31353520343168314d31313020343268314d31353520343268314d31313020343468314d31353520343468314d31313020343568314d31353520343568314d31313020343668314d31353520343668314d31313020343768314d31353520343768314d31313020343868314d31353520343868314d31313020343968314d31353520343968314d31313020353068314d31353520353068314d31313020353168314d31353520353168314d31313020353268314d31353520353268314d31313020353368314d31353520353368314d31313020353468314d31353520353468314d31313020353568314d31353520353568314d31313020353668314d31353520353668314d31313020353768314d31353520353768314d383120353868394d39362035386831354d31323620353868394d313431203538683135204d31333720333068314d31303720333468314d31353220333568314d393220333968314d31333120343768314d383620343968314d3133342035306831204d31343220333068314d31333620333568314d31303920343068314d31343520343168314d393420343368314d31333920343868314d3134322035336831204d31323920333168314d3132362034316831204d3131302033346831204d31303520343368314d31353020343368314d393120353868354d3133362035386835204d31303620343368354d31353120343368354d393020353868314d31333520353868312027202f3e3c70617468207374726f6b653d27232720643d274d36362038396831314d37382038396831374d3134312038396832394d36362039306832394d3134312039306832374d31363920393068314d363620393168324d36392039316831394d383920393168364d31343120393168314d3134332039316832374d36362039326832394d3134312039326832394d36362039336832394d3134312039336832394d36362039346832394d3134312039346832394d36362039356832394d3134312039356832394d36362039366832374d393420393668314d3134312039366832394d363620393768354d37322039376832334d3134312039376832344d31363620393768344d36362039386832394d3134312039386832394d36362039396832394d3134312039396832394d3636203130306832394d313431203130306832394d3636203130316832394d313431203130316832394d3636203130326832394d313431203130326832394d3636203130336831374d38342031303368364d313431203130336831374d3135392031303368364d3636203130346832394d313431203130346832394d3636203130356832394d313431203130356832394d3636203130366832394d313431203130366832394d3636203130376831394d38362031303768394d313431203130376832394d3636203130386832394d313431203130386832394d3636203130396832394d313431203130396832394d3636203131306832394d313431203131306832394d3636203131316832394d313431203131316832394d3636203131326832394d313431203131326832394d3636203131336832394d313431203131336832394d3636203131346832394d313431203131346832394d3636203131356832394d313431203131356832394d3636203131366832394d313431203131366832394d3636203131376832394d31343120313137683239204d373720383968314d363820393168314d373120393768314d38332031303368314d313538203130336831204d393520383968314d31373020383968314d393520393068314d31373020393068314d393520393168314d31373020393168314d393520393268314d31373020393268314d393520393368314d31373020393368314d393520393468314d31373020393468314d393520393568314d31373020393568314d393520393668314d31373020393668314d393520393768314d31373020393768314d393520393868314d31373020393868314d393520393968314d31373020393968314d39352031303068314d3137302031303068314d39352031303168314d3137302031303168314d39352031303268314d313730203130326831204d31363820393068314d393320393668314d3136352039376831204d383820393168314d31343220393168314d3835203130376831204d39302031303368314d313635203130336831204d39312031303368344d313636203130336834204d39352031303368314d313730203130336831204d39352031303468314d3137302031303468314d39352031303568314d3137302031303568314d39352031303668314d3137302031303668314d39352031303768314d3137302031303768314d39352031303868314d3137302031303868314d39352031303968314d3137302031303968314d39352031313068314d3137302031313068314d39352031313168314d3137302031313168314d39352031313268314d3137302031313268314d39352031313368314d3137302031313368314d39352031313468314d3137302031313468314d39352031313568314d3137302031313568314d39352031313668314d3137302031313668314d39352031313768314d3137302031313768314d36362031313868394d3831203131386831354d3134312031313868394d31353620313138683135204d37352031313868314d313530203131386831204d37362031313868354d31353120313138683527202f3e3c70617468207374726f6b653d27232720643d274d33362037346831344d33362037356831344d33362037366831344d33362037376831344d33362037386831344d33362037396831344d33362038306831344d33362038316831344d33362038326831344d333620383368394d343620383368344d33362038346831344d33362038356831344d33362038366831344d33362038376831344d333620383868394d33362038396831344d33362039306831344d33362039316831344d33362039326831314d343820393268324d33362039336831344d33362039346831344d333620393568374d343420393568364d33362039366831344d33362039376831344d33362039386831344d33362039396831304d343720393968334d3336203130306831344d33362031303168364d34332031303168374d3336203130326831314d3438203130326832204d353020373468314d353020373568314d353020373668314d353020373768314d353020373868314d353020373968314d353020383068314d353020383168314d353020383268314d353020383368314d353020383468314d353020383568314d353020383668314d353020383768314d353020383968314d353020393068314d353020393168314d353020393268314d353020393368314d353020393468314d353020393568314d353020393668314d353020393868314d353020393968314d35302031303068314d35302031303168314d3530203130326831204d343520383368314d3432203130316831204d34352038386831204d34362038386835204d343720393268314d3437203130326831204d343320393568314d34362039396831204d35302039376831204d3336203130336839204d3435203130336831204d343620313033683527202f3e3c70617468207374726f6b653d27232720643d274d3138362038396831344d3138362039306831344d3138362039316831344d3138362039326831344d3138362039336831344d3138362039346831344d3138362039356831344d3138362039366831344d3138362039376831344d3138362039386831344d3138362039396831344d313836203130306831344d313836203130316831344d31383620313032683134204d32303020383968314d32303020393068314d32303020393168314d32303020393268314d32303020393368314d32303020393468314d32303020393568314d32303020393668314d32303020393768314d32303020393868314d32303020393968314d3230302031303068314d3230302031303168314d3230302031303268314d31383620313033683135272f3e3c2f7376673e",
  "linkReferences": {},
  "deployedLinkReferences": {}
}